{
    "_format": "hh-sol-artifact-1",
    "contractName": "TokenizedBallot",
    "sourceName": "contracts/TokenizedBallot.sol",
    "abi": [
        {
            "inputs": [
                {
                    "internalType": "bytes32[]",
                    "name": "proposalNames",
                    "type": "bytes32[]"
                },
                {
                    "internalType": "address",
                    "name": "_voteTokenContract",
                    "type": "address"
                },
                {
                    "internalType": "uint256",
                    "name": "_referenceBlock",
                    "type": "uint256"
                }
            ],
            "stateMutability": "nonpayable",
            "type": "constructor"
        },
        {
            "inputs": [
                {
                    "internalType": "uint256",
                    "name": "",
                    "type": "uint256"
                }
            ],
            "name": "proposals",
            "outputs": [
                {
                    "internalType": "bytes32",
                    "name": "name",
                    "type": "bytes32"
                },
                {
                    "internalType": "uint256",
                    "name": "voteCount",
                    "type": "uint256"
                }
            ],
            "stateMutability": "view",
            "type": "function"
        },
        {
            "inputs": [],
            "name": "referenceBlock",
            "outputs": [
                {
                    "internalType": "uint256",
                    "name": "",
                    "type": "uint256"
                }
            ],
            "stateMutability": "view",
            "type": "function"
        },
        {
            "inputs": [],
            "name": "tokenContract",
            "outputs": [
                {
                    "internalType": "contract ITokenizedVotes",
                    "name": "",
                    "type": "address"
                }
            ],
            "stateMutability": "view",
            "type": "function"
        },
        {
            "inputs": [
                {
                    "internalType": "uint256",
                    "name": "proposal",
                    "type": "uint256"
                },
                {
                    "internalType": "uint256",
                    "name": "amount",
                    "type": "uint256"
                }
            ],
            "name": "vote",
            "outputs": [],
            "stateMutability": "nonpayable",
            "type": "function"
        },
        {
            "inputs": [
                {
                    "internalType": "uint256",
                    "name": "_indexOfProposal",
                    "type": "uint256"
                }
            ],
            "name": "voteCountProp",
            "outputs": [
                {
                    "internalType": "uint256",
                    "name": "",
                    "type": "uint256"
                }
            ],
            "stateMutability": "view",
            "type": "function"
        },
        {
            "inputs": [
                {
                    "internalType": "address",
                    "name": "account",
                    "type": "address"
                }
            ],
            "name": "votePower",
            "outputs": [
                {
                    "internalType": "uint256",
                    "name": "votePower_",
                    "type": "uint256"
                }
            ],
            "stateMutability": "view",
            "type": "function"
        },
        {
            "inputs": [
                {
                    "internalType": "address",
                    "name": "",
                    "type": "address"
                }
            ],
            "name": "votePowerSpent",
            "outputs": [
                {
                    "internalType": "uint256",
                    "name": "",
                    "type": "uint256"
                }
            ],
            "stateMutability": "view",
            "type": "function"
        },
        {
            "inputs": [],
            "name": "winnerName",
            "outputs": [
                {
                    "internalType": "bytes32",
                    "name": "winnerName_",
                    "type": "bytes32"
                }
            ],
            "stateMutability": "view",
            "type": "function"
        },
        {
            "inputs": [],
            "name": "winningProposal",
            "outputs": [
                {
                    "internalType": "uint256",
                    "name": "winningProposal_",
                    "type": "uint256"
                }
            ],
            "stateMutability": "view",
            "type": "function"
        }
    ],
    "bytecode": "0x60806040523480156200001157600080fd5b5060405162000eaa38038062000eaa833981810160405281019062000037919062000384565b60005b8351811015620000ce5760026040518060400160405280868481518110620000675762000066620003ff565b5b6020026020010151815260200160008152509080600181540180825580915050600190039060005260206000209060020201600090919091909150600082015181600001556020820151816001015550508080620000c5906200045d565b9150506200003a565b5081600160006101000a81548173ffffffffffffffffffffffffffffffffffffffff021916908373ffffffffffffffffffffffffffffffffffffffff16021790555080600081905550505050620004aa565b6000604051905090565b600080fd5b600080fd5b600080fd5b6000601f19601f8301169050919050565b7f4e487b7100000000000000000000000000000000000000000000000000000000600052604160045260246000fd5b620001848262000139565b810181811067ffffffffffffffff82111715620001a657620001a56200014a565b5b80604052505050565b6000620001bb62000120565b9050620001c9828262000179565b919050565b600067ffffffffffffffff821115620001ec57620001eb6200014a565b5b602082029050602081019050919050565b600080fd5b6000819050919050565b620002178162000202565b81146200022357600080fd5b50565b60008151905062000237816200020c565b92915050565b6000620002546200024e84620001ce565b620001af565b905080838252602082019050602084028301858111156200027a5762000279620001fd565b5b835b81811015620002a7578062000292888262000226565b8452602084019350506020810190506200027c565b5050509392505050565b600082601f830112620002c957620002c862000134565b5b8151620002db8482602086016200023d565b91505092915050565b600073ffffffffffffffffffffffffffffffffffffffff82169050919050565b60006200031182620002e4565b9050919050565b620003238162000304565b81146200032f57600080fd5b50565b600081519050620003438162000318565b92915050565b6000819050919050565b6200035e8162000349565b81146200036a57600080fd5b50565b6000815190506200037e8162000353565b92915050565b600080600060608486031215620003a0576200039f6200012a565b5b600084015167ffffffffffffffff811115620003c157620003c06200012f565b5b620003cf86828701620002b1565b9350506020620003e28682870162000332565b9250506040620003f5868287016200036d565b9150509250925092565b7f4e487b7100000000000000000000000000000000000000000000000000000000600052603260045260246000fd5b7f4e487b7100000000000000000000000000000000000000000000000000000000600052601160045260246000fd5b60006200046a8262000349565b91507fffffffffffffffffffffffffffffffffffffffffffffffffffffffffffffffff82036200049f576200049e6200042e565b5b600182019050919050565b6109f080620004ba6000396000f3fe608060405234801561001057600080fd5b50600436106100935760003560e01c8063b14d49f411610066578063b14d49f414610135578063b384abef14610165578063d94c8caa14610181578063e2ba53f01461019f578063e490e699146101bd57610093565b8063013cf08b1461009857806355a373d6146100c9578063609ff1bd146100e75780639e90d0d914610105575b600080fd5b6100b260048036038101906100ad9190610570565b6101ed565b6040516100c09291906105c5565b60405180910390f35b6100d1610221565b6040516100de919061066d565b60405180910390f35b6100ef610247565b6040516100fc9190610688565b60405180910390f35b61011f600480360381019061011a91906106e1565b6102cf565b60405161012c9190610688565b60405180910390f35b61014f600480360381019061014a9190610570565b6102e7565b60405161015c9190610688565b60405180910390f35b61017f600480360381019061017a919061070e565b610321565b005b610189610408565b6040516101969190610688565b60405180910390f35b6101a761040e565b6040516101b4919061074e565b60405180910390f35b6101d760048036038101906101d291906106e1565b610442565b6040516101e49190610688565b60405180910390f35b600281815481106101fd57600080fd5b90600052602060002090600202016000915090508060000154908060010154905082565b600160009054906101000a900473ffffffffffffffffffffffffffffffffffffffff1681565b6000806000905060005b6002805490508110156102ca57816002828154811061027357610272610769565b5b90600052602060002090600202016001015411156102b7576002818154811061029f5761029e610769565b5b90600052602060002090600202016001015491508092505b80806102c2906107c7565b915050610251565b505090565b60036020528060005260406000206000915090505481565b600080600283815481106102fe576102fd610769565b5b906000526020600020906002020190506000816001015490508092505050919050565b600061032c33610442565b905081811015610371576040517f08c379a0000000000000000000000000000000000000000000000000000000008152600401610368906108b8565b60405180910390fd5b81600360003373ffffffffffffffffffffffffffffffffffffffff1673ffffffffffffffffffffffffffffffffffffffff16815260200190815260200160002060008282546103c091906108d8565b9250508190555081600284815481106103dc576103db610769565b5b906000526020600020906002020160010160008282546103fc91906108d8565b92505081905550505050565b60005481565b6000600261041a610247565b8154811061042b5761042a610769565b5b906000526020600020906002020160000154905090565b6000600360008373ffffffffffffffffffffffffffffffffffffffff1673ffffffffffffffffffffffffffffffffffffffff16815260200190815260200160002054600160009054906101000a900473ffffffffffffffffffffffffffffffffffffffff1673ffffffffffffffffffffffffffffffffffffffff16633a46b1a8846000546040518363ffffffff1660e01b81526004016104e392919061091b565b602060405180830381865afa158015610500573d6000803e3d6000fd5b505050506040513d601f19601f820116820180604052508101906105249190610959565b61052e9190610986565b9050919050565b600080fd5b6000819050919050565b61054d8161053a565b811461055857600080fd5b50565b60008135905061056a81610544565b92915050565b60006020828403121561058657610585610535565b5b60006105948482850161055b565b91505092915050565b6000819050919050565b6105b08161059d565b82525050565b6105bf8161053a565b82525050565b60006040820190506105da60008301856105a7565b6105e760208301846105b6565b9392505050565b600073ffffffffffffffffffffffffffffffffffffffff82169050919050565b6000819050919050565b600061063361062e610629846105ee565b61060e565b6105ee565b9050919050565b600061064582610618565b9050919050565b60006106578261063a565b9050919050565b6106678161064c565b82525050565b6000602082019050610682600083018461065e565b92915050565b600060208201905061069d60008301846105b6565b92915050565b60006106ae826105ee565b9050919050565b6106be816106a3565b81146106c957600080fd5b50565b6000813590506106db816106b5565b92915050565b6000602082840312156106f7576106f6610535565b5b6000610705848285016106cc565b91505092915050565b6000806040838503121561072557610724610535565b5b60006107338582860161055b565b92505060206107448582860161055b565b9150509250929050565b600060208201905061076360008301846105a7565b92915050565b7f4e487b7100000000000000000000000000000000000000000000000000000000600052603260045260246000fd5b7f4e487b7100000000000000000000000000000000000000000000000000000000600052601160045260246000fd5b60006107d28261053a565b91507fffffffffffffffffffffffffffffffffffffffffffffffffffffffffffffffff820361080457610803610798565b5b600182019050919050565b600082825260208201905092915050565b7f546f6b656e697a656442616c6c6f743a20547279696e6720746f20766f74652060008201527f77697468206d6f726520766f7465207468616e20766f746520706f776572206160208201527f7661696c61626c6520666f722074686973206163636f756e7400000000000000604082015250565b60006108a260598361080f565b91506108ad82610820565b606082019050919050565b600060208201905081810360008301526108d181610895565b9050919050565b60006108e38261053a565b91506108ee8361053a565b925082820190508082111561090657610905610798565b5b92915050565b610915816106a3565b82525050565b6000604082019050610930600083018561090c565b61093d60208301846105b6565b9392505050565b60008151905061095381610544565b92915050565b60006020828403121561096f5761096e610535565b5b600061097d84828501610944565b91505092915050565b60006109918261053a565b915061099c8361053a565b92508282039050818111156109b4576109b3610798565b5b9291505056fea2646970667358221220d31115a0017e840077391d4df19d8159fa600a53c15f7d675f85585a865aca8c64736f6c63430008110033",
    "linkReferences": {},
    "deployedLinkReferences": {}
}